{
  "_format": "hh-sol-artifact-1",
  "contractName": "StableCoinsConverter",
  "sourceName": "contracts/StableCoinsConverter.sol",
  "abi": [
    {
      "inputs": [
        {
          "internalType": "address",
          "name": "_uniswapRouter",
          "type": "address"
        },
        {
          "internalType": "address",
          "name": "_quoter",
          "type": "address"
        },
        {
          "internalType": "address",
          "name": "_multiDaiKovan",
          "type": "address"
        },
        {
          "internalType": "address",
          "name": "_WETH9",
          "type": "address"
        }
      ],
      "stateMutability": "nonpayable",
      "type": "constructor"
    },
    {
      "inputs": [
        {
          "internalType": "address[]",
          "name": "_recipients",
          "type": "address[]"
        },
        {
          "internalType": "uint256",
          "name": "_arrLength",
          "type": "uint256"
        },
        {
          "internalType": "uint256",
          "name": "daiAmount",
          "type": "uint256"
        }
      ],
      "name": "convertEthToExactDai",
      "outputs": [],
      "stateMutability": "payable",
      "type": "function"
    },
    {
      "inputs": [
        {
          "internalType": "uint256",
          "name": "daiAmount",
          "type": "uint256"
        }
      ],
      "name": "getEstimatedETHforDAI",
      "outputs": [
        {
          "internalType": "uint256",
          "name": "",
          "type": "uint256"
        }
      ],
      "stateMutability": "payable",
      "type": "function"
    },
    {
      "inputs": [],
      "name": "quoter",
      "outputs": [
        {
          "internalType": "contract IQuoter",
          "name": "",
          "type": "address"
        }
      ],
      "stateMutability": "view",
      "type": "function"
    },
    {
      "inputs": [],
      "name": "uniswapRouter",
      "outputs": [
        {
          "internalType": "contract IUniswapRouter",
          "name": "",
          "type": "address"
        }
      ],
      "stateMutability": "view",
      "type": "function"
    },
    {
      "stateMutability": "payable",
      "type": "receive"
    }
  ],
  "bytecode": "0x608060405234801561001057600080fd5b506040516108d03803806108d083398101604081905261002f916100ac565b600080546001600160a01b03199081166001600160a01b0396871617909155600180548216948616949094179093556002805484169285169290921791829055600380548416918516919091179055600480549190931691161790556100ff565b80516001600160a01b03811681146100a757600080fd5b919050565b600080600080608085870312156100c1578384fd5b6100ca85610090565b93506100d860208601610090565b92506100e660408601610090565b91506100f460608601610090565b905092959194509250565b6107c28061010e6000396000f3fe6080604052600436106100435760003560e01c8063735de9f71461004f578063ada8b83d1461007a578063c6bbd5a71461009a578063da0a4773146100af5761004a565b3661004a57005b600080fd5b34801561005b57600080fd5b506100646100c4565b6040516100719190610623565b60405180910390f35b61008d6100883660046105f0565b6100d3565b6040516100719190610783565b3480156100a657600080fd5b5061006461017f565b6100c26100bd366004610504565b61018e565b005b6000546001600160a01b031681565b6003546002546001546040516330d07f2160e01b81526000936001600160a01b03908116938116926101f4928692909116906330d07f2190610121908790879087908c908890600401610637565b602060405180830381600087803b15801561013b57600080fd5b505af115801561014f573d6000803e3d6000fd5b505050506040513d601f19601f820116820180604052508101906101739190610608565b9450505050505b919050565b6001546001600160a01b031681565b600081116101b75760405162461bcd60e51b81526004016101ae90610685565b60405180910390fd5b600034116101d75760405162461bcd60e51b81526004016101ae906106bc565b60035460025460408051610100810182526001600160a01b0393841680825292841660208201819052610bb88284018190523060608401819052600f42016080850181905260a085018990523460c08601819052600060e0870181905280549751631b67c43360e31b815292999597949693958b95929491939192169063db3e219890859061026a90859060040161071a565b6020604051808303818588803b15801561028357600080fd5b505af1158015610297573d6000803e3d6000fd5b50505050506040513d601f19601f820116820180604052508101906102bc9190610608565b506000805460408051630910874560e11b815290516001600160a01b03909216926312210e8a9260048084019382900301818387803b1580156102fe57600080fd5b505af1158015610312573d6000803e3d6000fd5b5050600480546040516370a0823160e01b8152600094508f93506001600160a01b03909116916370a082319161034a91309101610623565b60206040518083038186803b15801561036257600080fd5b505afa158015610376573d6000803e3d6000fd5b505050506040513d601f19601f8201168201806040525081019061039a9190610608565b816103a157fe5b04905060005b8c81101561046057600460009054906101000a90046001600160a01b03166001600160a01b031663a9059cbb8f83815181106103df57fe5b6020026020010151846040518363ffffffff1660e01b815260040161040592919061066c565b602060405180830381600087803b15801561041f57600080fd5b505af1158015610433573d6000803e3d6000fd5b505050506040513d601f19601f8201168201806040525081019061045791906105c9565b506001016103a7565b506000336001600160a01b03164760405161047a90610620565b60006040518083038185875af1925050503d80600081146104b7576040519150601f19603f3d011682016040523d82523d6000602084013e6104bc565b606091505b50509050806104dd5760405162461bcd60e51b81526004016101ae906106f3565b5050505050505050505050505050565b80356001600160a01b038116811461017a57600080fd5b600080600060608486031215610518578283fd5b833567ffffffffffffffff8082111561052f578485fd5b818601915086601f830112610542578485fd5b813560208282111561055057fe5b8082026040518282820101818110868211171561056957fe5b604052838152828101945085830182870184018c101561058757898afd5b8996505b848710156105b05761059c816104ed565b86526001969096019594830194830161058b565b509a918901359950506040909701359695505050505050565b6000602082840312156105da578081fd5b815180151581146105e9578182fd5b9392505050565b600060208284031215610601578081fd5b5035919050565b600060208284031215610619578081fd5b5051919050565b90565b6001600160a01b0391909116815260200190565b6001600160a01b039586168152938516602085015262ffffff9290921660408401526060830152909116608082015260a00190565b6001600160a01b03929092168252602082015260400190565b6020808252601a908201527f4d7573742070617373206e6f6e20302044414920616d6f756e74000000000000604082015260600190565b6020808252601a908201527f4d7573742070617373206e6f6e20302045544820616d6f756e74000000000000604082015260600190565b6020808252600d908201526c1c99599d5b990819985a5b1959609a1b604082015260600190565b81516001600160a01b03908116825260208084015182169083015260408084015162ffffff16908301526060808401518216908301526080808401519083015260a0838101519083015260c0808401519083015260e09283015116918101919091526101000190565b9081526020019056fea2646970667358221220a20f517663cc90106fc45118c7138d1c634ac37b9fd2b584365cabbd2350547a64736f6c63430007060033",
  "linkReferences": {},
  "deployedLinkReferences": {}
}